:100000000C9462000C948A000C948A000C948A0070
:100010000C948A000C948A000C948A000C948A0038
:100020000C948A000C948A000C948A000C948A0028
:100030000C948A000C948A000C948A000C948A0018
:100040000C94A2070C948A000C9412080C94EC07F0
:100050000C948A000C948A000C948A000C948A00F8
:100060000C9444080C948A0000000000240027002F
:100070002A0000000000250028002B0000000000DE
:1000800023002600290004040404040404040202DA
:100090000202020203030303030301020408102007
:1000A0004080010204081020010204081020000012
:1000B0000008000201000003040700000000000027
:1000C0000000630911241FBECFEFD8E0DEBFCDBF13
:1000D00011E0A0E0B1E0E6EEFEE102C005900D9275
:1000E000A433B107D9F722E0A4E3B1E001C01D9227
:1000F000AD3AB207E1F710E0C2E6D0E004C02197C4
:10010000FE010E94460EC136D107C9F70E94A80918
:100110000C94710F0C940000833081F028F481302E
:1001200099F08230A9F008958730A9F08830C9F09D
:100130008430B1F4809180008F7D03C08091800075
:100140008F7780938000089584B58F7784BD08955C
:1001500084B58F7DFBCF8091B0008F778093B00006
:1001600008958091B0008F7DF9CFCF93DF93282F32
:1001700030E0F901E255FF4F8491F901E656FF4F57
:10018000D491F901EA57FF4FC491CC23A1F081111A
:100190000E948C00EC2FF0E0EE0FFF1FE458FF4FA1
:1001A000A591B491EC91ED2381E090E009F480E019
:1001B000DF91CF91089580E090E0FACF1F93CF9325
:1001C000DF93282F30E0F901E255FF4F8491F901C8
:1001D000E656FF4FD491F901EA57FF4FC491CC2363
:1001E000A9F0162F81110E948C00EC2FF0E0EE0F89
:1001F000FF1FEE58FF4FA591B4918FB7F894EC9183
:10020000111108C0D095DE23DC938FBFDF91CF9111
:100210001F910895DE2BF8CFCF93DF9390E0FC0180
:10022000E656FF4F24918A579F4FFC018491882303
:10023000D1F090E0880F991FFC01E859FF4FA5917C
:10024000B491FC01EE58FF4FC591D49161110EC0DD
:100250009FB7F8948C91E22FE0958E238C932881A0
:10026000E223E8839FBFDF91CF9108958FB7F89481
:10027000EC91E22BEC938FBFF6CF8E50806480938D
:100280007C0080917A00806480937A0080917A006B
:1002900086FDFCCF809178009091790008953FB75A
:1002A000F8948091810190918201A0918301B09195
:1002B000840126B5A89B05C02F3F19F00196A11D0A
:1002C000B11D3FBFBA2FA92F982F8827BC01CD01A0
:1002D000620F711D811D911D42E0660F771F881FFF
:1002E000991F4A95D1F708958F929F92AF92BF922E
:1002F000CF92DF92EF92FF926B017C010E944F013F
:100300004B015C01C114D104E104F104B9F00E9475
:100310004F01681979098A099B09683E7340810574
:10032000910580F321E0C21AD108E108F10888EEB6
:10033000880E83E0981EA11CB11CE4CFFF90EF90C3
:10034000DF90CF90BF90AF909F908F9008950895C9
:100350000895AF92BF92CF92DF92EF92FF920F93E8
:100360001F93CF93DF936C017B018B01040F151F4B
:10037000EB015E01AE18BF08C017D10759F06991B3
:10038000D601ED91FC910190F081E02DC601099517
:10039000892B79F7C501DF91CF911F910F91FF90C4
:1003A000EF90DF90CF90BF90AF900895FC01538DF8
:1003B000448D252F30E0842F90E0821B930B54173F
:1003C00010F0CF96089501970895FC01918D828DCC
:1003D000981761F0A28DAE0FBF2FB11D5D968C9165
:1003E000928D9F5F9F73928F90E008958FEF9FEFA4
:1003F0000895FC01918D828D981731F0828DE80F60
:10040000F11D858D90E008958FEF9FEF0895FC0119
:10041000918D228D892F90E0805C9F4F821B9109E6
:100420008F739927089587EF91E00E94070221E0DA
:10043000892B09F420E0822F089580E090E0892B39
:1004400029F00E94130281110C9400000895FC0110
:10045000A48DA80FB92FB11DA35ABF4F2C91848D25
:1004600090E001968F739927848FA689B7892C9382
:10047000A089B1898C91837080648C93938D848DD5
:10048000981306C00288F389E02D80818F7D8083D8
:100490000895EF92FF920F931F93CF93DF93EC0198
:1004A00081E0888F9B8D8C8D98131AC0E889F9891B
:1004B000808185FF15C09FB7F894EE89FF8960831E
:1004C000E889F98980818370806480839FBF81E09F
:1004D00090E0DF91CF911F910F91FF90EF900895E1
:1004E000F62E0B8D10E00F5F1F4F0F731127E02EBC
:1004F0008C8D8E110CC00FB607FCFACFE889F989F4
:10050000808185FFF5CFCE010E942702F1CFEB8DD0
:10051000EC0FFD2FF11DE35AFF4FF0829FB7F894C7
:100520000B8FEA89FB8980818062CFCFCF93DF93E5
:10053000EC01888D8823B9F0AA89BB89E889F989FB
:100540008C9185FD03C0808186FD0DC00FB607FC30
:10055000F7CF8C9185FFF2CF808185FFEDCFCE0163
:100560000E942702E9CFDF91CF9108952091550194
:10057000260F3327331F21323105ECF42091CD01B2
:10058000FC0190E080E0243069F082E00895A091C1
:1005900055012191AC014B5C5E4FA40FB52FB11DED
:1005A0002C930196861798F380915501680F6093FC
:1005B000550180E0089581E008951092CD0181E019
:1005C0008093CC011092A70161E082E10E94DE00DD
:1005D00061E083E10E94DE00E9EBF0E080818E7F44
:1005E000808380818D7F808388E48093B80085E458
:1005F0008093BC000895CF93DF9391E090933401F2
:100600008823B9F0C091B800D091BA008091BC00A5
:100610008A7B8093BC0060E082E10E94DE0060E0A3
:1006200083E10E94DE000E94DD02D093BA00C093F5
:10063000B800DF91CF9108958F929F92AF92BF92B1
:10064000CF92DF92EF92FF920F931F93CF93DF939E
:10065000D091F601D13208F0D7C0182FC091F50122
:100660000E944F016B017C018091CD0181116BC013
:1006700082E08093CD011093CC018FEF8093CB016A
:100680001092CA01D093C901A5EDB1E0E9EAF1E009
:1006900080E0D81391C01092A8018091A801CC0FDE
:1006A000C82BC093A8018091A701813009F088C0B0
:1006B0001092A7010E944F016B017C018091A8015B
:1006C0008093BB008091CF019091D001A091D10186
:1006D000B091D201892B8A2B8B2BA1F00E944F0164
:1006E0000091CF011091D0012091D1013091D20120
:1006F0006C197D098E099F09061717072807390706
:1007000008F442C08091BC0083FDD8CF85EC809373
:10071000BC000E944F016B017C018091CD018230B1
:1007200009F450C08091CB018F3F09F46FC08091D4
:10073000CB01803209F46CC08091CB01803309F485
:1007400069C084E026C08091CF019091D001A09132
:10075000D101B091D201892B8A2B8B2B09F484CF44
:100760000E944F018090CF019090D001A090D101C4
:10077000B090D2016C197D098E099F0986169706E3
:10078000A806B90608F070CF8091CE010E94FB0246
:1007900085E01092D4011092F6011092D301DF91FE
:1007A000CF911F910F91FF90EF90DF90CF90BF906E
:1007B000AF909F908F9008959D9191938F5F69CF97
:1007C00085EEA5CF8091CF019091D001A091D1016C
:1007D000B091D201892B8A2B8B2B09F49ECF0E94DA
:1007E0004F010091CF011091D0012091D1013091A2
:1007F000D2016C197D098E099F0906171707280772
:10080000390708F08ACFC0CF81E0C3CF80E0C1CFE5
:1008100082E0BFCF83E0BDCF1F93CF93DF93EA0188
:10082000122FDC0111968D919C91DC01ED91FC91D0
:100830000280F381E02D0995C817D90729F4812F8B
:100840000E941C0391E0811190E0892FDF91CF91EC
:100850001F910895CF93DF93EC018B818823A1F042
:10086000888191E09093D3018093F5011092D40197
:100870001092F60181E00E941C0391E0811190E04A
:10088000892FDF91CF9108951092860110928501F2
:100890001092D4011092F6010E94DD0287EA91E0E5
:1008A000909379018093780188EA91E090937B019D
:1008B00080937A0181E08B83CE010E942A04982FD5
:1008C0008111CECFDDCF0895E09186018091850121
:1008D000E81730F4F0E0E957FE4F808190E008958A
:1008E0008FEF9FEF089590918601809185012FEF02
:1008F0003FEF981748F4E92FF0E0E957FE4F2081C9
:1009000030E09F5F90938601C90108958091850131
:1009100090918601891B990B0895CF92DF92EF92F7
:10092000FF920F931F93CF93DF937C01CB018A013A
:100930002091D301222389F0EB016B01C40ED51E57
:10094000CC15DD0569F06991D701ED91FC9101901D
:10095000F081E02DC7010995F3CF642F0E94B60204
:10096000C801DF91CF911F910F91FF90EF90DF9021
:10097000CF900895CF93DF931F92CDB7DEB76983F1
:100980002091D3012223F9F02091F601203258F072
:1009900021E030E0FC013383228390E080E00F907F
:1009A000DF91CF9108958091D401E82FF0E0EB52D0
:1009B000FE4F998190838F5F8093D4018093F601DD
:1009C00081E090E0ECCF61E0CE0101960E94B6029A
:1009D000F7CF90E080E008952F923F924F925F9280
:1009E0006F927F928F929F92AF92BF92CF92DF923F
:1009F000EF92FF920F931F93CF93DF93DC01149636
:100A00002D913C911597232B09F40FC14A01EC015C
:100A1000888191E09093D3018093F5011092D401E5
:100A20001092F60120E041E050E0CD010E940C045C
:100A3000F82E882309F4F9C0EE24E39485EC382ECF
:100A4000CC80DD8001E0C114D10409F400E0A02EC7
:100A5000B12C28800E944F012B013C018091CD01D7
:100A6000811165C0102FE092CD010093CC01BFEF42
:100A7000B093CB011092CA018FEF800F8093C90110
:100A8000E092A8018091A801220C282A2092A801B6
:100A90008091A701813009F08BC01092A7010E94BC
:100AA0004F012B013C018091A8018093BB008091F4
:100AB000CF019091D001A091D101B091D201892BA9
:100AC0008A2B8B2BA1F00E944F012091CF013091F6
:100AD000D0014091D1015091D20164197509860964
:100AE0009709261737074807590708F441C080912E
:100AF000BC0083FDD8CF3092BC000E944F012B0177
:100B00003C018091CD01813009F456C08091CA0129
:100B1000801710F41091CA01E9EAF1E0A7E8B1E00A
:100B200080E0811751F191919D938F5FFACF809171
:100B3000CF019091D001A091D101B091D201892B28
:100B40008A2B8B2B09F48ACF0E944F012091CF0171
:100B50003091D0014091D1015091D20164197509B1
:100B600086099709261737074807590708F076CFEF
:100B70008091CE010E94FB0210E01092860110933A
:100B800085011A151B0409F050C090E080E08A1519
:100B90009B05A0F589819A81DC01ED91FC9102848D
:100BA000F385E02D0995F401808381E090E0EFCF9B
:100BB000E5EEE093BC00A1CF8091CF019091D001F0
:100BC000A091D101B091D201892B8A2B8B2B09F4F2
:100BD00098CF0E944F012091CF013091D0014091D8
:100BE000D1015091D2016419750986099709261718
:100BF00037074807590708F084CFBACFCD2809F442
:100C00001FCF8F2DDF91CF911F910F91FF90EF900C
:100C1000DF90CF90BF90AF909F908F907F906F901C
:100C20005F904F903F902F900895F12CEACF8F92D4
:100C30009F92AF92BF92CF92DF92EF92FF921F935B
:100C4000CF93DF9300D000D01F92CDB7DEB7182F1F
:100C500090E080E00E94220D6B017C018EEF898381
:100C6000AE014F5F5F4FBA018091A3029091A40241
:100C70000E94EC04698170E06F5F7F4F90E080E03C
:100C80000E94220D20E034E244E759E40E94D90D8D
:100C90004B015C016091A5027091A6028091A702B0
:100CA0009091A8020E94220D9B01AC01C501B401E4
:100CB0000E94810C9B01AC01C701B6010E94810C0E
:100CC0000E94F30C110F110F1A5F19831A821B82F5
:100CD0006C837D838091A3029091A402FC01248106
:100CE00035812530310590F0208131E03093D301FA
:100CF0002093F5011092D4011092F60121E045E015
:100D000050E0BE016F5F7F4F0E940C040F900F9068
:100D10000F900F900F90DF91CF911F91FF90EF9068
:100D2000DF90CF90BF90AF909F908F900895CF931A
:100D3000DF9300D0CDB7DEB789836A838091A302A9
:100D40009091A402FC01248135812230310590F07C
:100D5000208131E03093D3012093F5011092D4012A
:100D60001092F60121E042E050E0BE016F5F7F4F3C
:100D70000E940C040F900F90DF91CF9108958F92F5
:100D80009F92AF92BF92CF92DF92EF92FF921F930A
:100D9000CF93DF931F92CDB7DEB76B017C0120E0CC
:100DA00030E040E85FE30E947C0C87FD86C020E0D5
:100DB00030EC4AE555E4C701B6010E94D40D18167F
:100DC0003CF4C12C30ECD32E3AE5E32E35E4F32E7F
:100DD0006091A5027091A6028091A7029091A8024D
:100DE0000E94220D4B015C0120E030E040E855E418
:100DF000C701B6010E94D90D9B01AC01C501B40128
:100E00000E94810C20E030E040E05FE30E94100C83
:100E100020E030E040E85FE30E940F0C6B017C01B2
:100E200020E030E040E450E40E947C0C87FD4CC0A0
:100E300020E030E04FE753E4C701B6010E94D40D33
:100E4000181634F4C12CD12C9FE7E92E93E4F92E27
:100E50001982AE014F5F5F4FBA018091A30290915A
:100E6000A4020E94EC041981612F6F76606180E01A
:100E70000E949706C701B6010E94F30C8EEF0E94F4
:100E80009706612F80E00E94970665E070E080E0A1
:100E900090E00E947401612F606A80E00E949706D2
:100EA0000F90DF91CF911F91FF90EF90DF90CF9047
:100EB000BF90AF909F908F900895C12CD12C20E8C7
:100EC000E22E2FE3F22E84CFC12CD12C80E4E82E29
:100ED000FE2CBECF85ED8093BC008091CF01909118
:100EE000D001A091D101B091D2010796A11DB11DF1
:100EF00023E0B695A795979587952A95D1F72091E8
:100F0000BC0024FD03C01092CD0108954091CF0193
:100F10005091D0016091D1017091D201452B462BA7
:100F2000472B69F30097A105B10541F02AE22A9504
:100F3000F1F700C00197A109B109E1CF8091CE017D
:100F40000C94FB021F920F920FB60F9211242F9355
:100F50003F938F939F93AF93BF9380917D01909127
:100F60007E01A0917F01B091800130917C0123E04E
:100F7000230F2D3758F50196A11DB11D20937C013B
:100F800080937D0190937E01A0937F01B0938001B7
:100F90008091810190918201A0918301B09184019F
:100FA0000196A11DB11D8093810190938201A093B0
:100FB0008301B0938401BF91AF919F918F913F9135
:100FC0002F910F900FBE0F901F90189526E8230FBA
:100FD0000296A11DB11DD2CF1F920F920FB60F9294
:100FE00011242F933F934F935F936F937F938F932E
:100FF0009F93AF93BF93EF93FF9387EF91E00E948E
:101000002702FF91EF91BF91AF919F918F917F91B7
:101010006F915F914F913F912F910F900FBE0F9065
:101020001F9018951F920F920FB60F9211242F93B5
:101030008F939F93EF93FF93E0910702F091080243
:101040008081E0910D02F0910E0282FD1BC0908123
:10105000809110028F5F8F7320911102821741F0EF
:10106000E0911002F0E0E950FE4F958F809310025E
:10107000FF91EF919F918F912F910F900FBE0F9045
:101080001F9018958081F4CF1F920F920FB60F9288
:1010900011242F933F934F935F936F937F938F937D
:1010A0009F93AF93BF93EF93FF938091B900887F95
:1010B000803609F44AC0F0F5883209F4A7C018F563
:1010C000803109F49BC0B8F4882309F4F9C0883052
:1010D00009F494C0FF91EF91BF91AF919F918F91CF
:1010E0007F916F915F914F913F912F910F900FBE24
:1010F0000F901F901895883109F488C0803251F7FD
:101100008093CB0114C0803409F49DC040F4803337
:10111000B9F38833F9F68093CB0185ECB0C0803504
:1011200009F485C0883509F496C0883499F60E9480
:101130006A07D0CF883909F48CC038F5883729F090
:1011400050F4883611F0803729F683E08093CD0182
:101150001092770157C0883809F47BC0803919F0A4
:10116000803809F0B7CF80917701803208F071C0E4
:10117000E091770181E08E0F809377018091BB0031
:10118000F0E0E95AFE4F80833DC0803B39F0E0F447
:10119000803A09F479C0883A09F09CCF84E08093C2
:1011A000CD011092560110925501E0917801F09115
:1011B000790109958091550181110FC081E08093DB
:1011C00055011092350109C0803C09F4A6CF883C36
:1011D00009F4A3CF883B09F07DCFE091560181E06F
:1011E0008E0F80935601F0E0EB5CFE4F8081809380
:1011F000BB00909156018091550129C08091A801B2
:101200008093BB0085EC8093BC0064CF9091CA01B1
:101210008091C901981758F5E091CA0181E08E0FBD
:101220008093CA01F0E0E755FE4F8081E9CFE0915D
:10123000CA0181E08E0F8093CA018091BB00F0E06B
:10124000E755FE4F80839091CA018091C90198179C
:10125000C8F285E8D8CFE091CA0181E08E0F809373
:10126000CA018091BB00F0E0E755FE4F808380917A
:10127000CC0181115CCF81E08093A70184EA809347
:10128000BC001092CD0126CF85EC8093BC0010925B
:10129000CD0180917701803230F4E0917701F0E068
:1012A000E95AFE4F10826091770170E0E0917A0177
:1012B000F0917B0187E591E00995109277010ACFC3
:1012C0001092CB0134CFE7EFF1E01382128288EE67
:1012D00093E0A0E0B0E084839583A683B78324E104
:1012E00031E03183208325EC30E03587248724ECFE
:1012F00030E03787268720EC30E0318B208B21ECE3
:1013000030E0338B228B22EC30E0358B248B26ECC3
:1013100030E0378B268B118E128E138E148EE4E9FB
:10132000F2E01382128284839583A683B78386E2D8
:1013300091E091838083A0EAB2E080E48C931296DE
:10134000FC93EE93119714961C921E921397089596
:10135000789484B5826084BD84B5816084BD85B590
:10136000826085BD85B5816085BD80916E0081609C
:1013700080936E0010928100809181008260809342
:101380008100809181008160809381008091800044
:101390008160809380008091B10084608093B1006F
:1013A0008091B00081608093B00080917A00846069
:1013B00080937A0080917A00826080937A00809195
:1013C0007A00816080937A0080917A0080688093AF
:1013D0007A001092C100E0910702F091080282E0C9
:1013E0008083E0910302F09104021082E0910502F3
:1013F000F091060280E1808310920F02E0910B02CF
:10140000F0910C0286E08083E0910902F0910A02DB
:10141000808180618083E0910902F0910A028081DD
:1014200088608083E0910902F0910A0280818068DF
:101430008083E0910902F0910A0280818F7D808390
:101440008091A3029091A402009711F00E94E80EEF
:1014500086E090E00E944C0EEC018091A1029091F8
:10146000A2022091A00228839A8389831B8280E2B2
:1014700090E09D838C83D093A402C093A30210922A
:101480008601109285011092D4011092F6010E94FB
:10149000DD0287EA91E0909379018093780188EAF0
:1014A00091E090937B0180937A0181E08B83CE0160
:1014B0000E942A04882381F060E880E00E94970659
:1014C0006AE070E080E090E00E94740160E070E00B
:1014D0008AE794E40E94BF0680EC9CEFABE9B1E0A0
:1014E0008093A5029093A602A093A702B093A802AE
:1014F00060E070E088E492E40E94BF0660E08EE065
:101500000E940C0160E08FE00E940C0160E080E12D
:101510000E940C0160E081E10E940C0161E087E023
:101520000E940C0160E082E00E940C0160E088E013
:101530000E940C0160E087E00E94DE006AE070E03B
:1015400080E090E00E9474016091080170910901AF
:1015500080E00E941706609106017091070181E00A
:101560000E941706609104017091050182E00E94BB
:101570001706609102017091030183E00E94170633
:10158000609100017091010184E00E94170668ECEF
:1015900070E080E090E00E947401C0E0D0E08EE056
:1015A0000E943D015C0180E10E943D016C018FE0E1
:1015B0000E943D017C0181E10E943D018C0181E29C
:1015C000A81683E0B8060CF4CCC0609108017091B5
:1015D0000901603689E0780794F480E00E941706DC
:1015E00080910801909109010596909309018093DB
:1015F000080169E170E080E090E00E94740181E2FE
:10160000C81683E0D8060CF4C4C06091060170913E
:101610000701603D87E0780794F481E00E94170697
:1016200080910601909107010596909307018093A0
:10163000060169E170E080E090E00E94740181E2BF
:10164000E81683E0F8060CF4BCC0609104017091C8
:101650000501623088E0780794F482E00E94170662
:101660008091040190910501059690930501809366
:10167000040169E170E080E090E00E9474010132B1
:1016800083E018070CF4B5C060910201709103016A
:10169000663688E0780794F483E00E94170680910C
:1016A000020190910301059690930301809302013A
:1016B00069E170E080E090E00E94740182E00E94A5
:1016C000B5000197F9F488E00E94B500892BD1F4A8
:1016D0006091000170910101663688E0780794F40A
:1016E00084E00E9417068091000190910101059607
:1016F000909301018093000169E170E080E090E047
:101700000E94740188E00E94B5000197F9F482E01C
:101710000E94B500892BD1F4609100017091010104
:10172000673688E0780794F084E00E94170680917D
:1017300000019091010105979093010180930001B0
:1017400069E170E080E090E00E947401209709F464
:1017500026CF0E941302882309F421CF0E940000A3
:101760001ECF80E9A81681E0B8060CF048CF609142
:10177000080170910901633C81E078070CF43FCFC8
:1017800080E00E9417068091080190910901059759
:101790002CCF80E9C81681E0D8060CF050CF6091BC
:1017A0000601709107016F3E82E078070CF447CF85
:1017B00081E00E941706809106019091070105972C
:1017C00034CF80E9E81681E0F8060CF058CF60913C
:1017D000040170910501673782E078070CF44FCF60
:1017E00082E00E94170680910401909105010597FF
:1017F0003CCF003911400CF061CF60910201709133
:101800000301673782E078070CF458CF83E00E9429
:1018100017068091020190910301059745CF50581A
:10182000BB27AA270E94270C0C949A0D0E948C0DAE
:1018300038F00E94930D20F039F49F3F19F426F4FC
:101840000C94890D0EF4E095E7FB0C94830DE92FC1
:101850000E94AB0D58F3BA17620773078407950708
:1018600020F079F4A6F50C94CD0D0EF4E0950B2E36
:10187000BA2FA02D0B01B90190010C01CA01A001E2
:101880001124FF27591B99F0593F50F4503E68F13D
:101890001A16F040A22F232F342F4427585FF3CF7E
:1018A000469537952795A795F0405395C9F77EF44F
:1018B0001F16BA0B620B730B840BBAF09150A1F098
:1018C000FF0FBB1F661F771F881FC2F70EC0BA0F1E
:1018D000621F731F841F48F4879577956795B795A6
:1018E000F7959E3F08F0B0CF9395880F08F09927A1
:1018F000EE0F9795879508950E945F0D08F481E09B
:1019000008950E94950C0C949A0D0E94930D58F026
:101910000E948C0D40F029F45F3F29F00C94830D58
:1019200051110C94CE0D0C94890D0E94AB0D68F3EF
:101930009923B1F3552391F3951B550BBB27AA2788
:1019400062177307840738F09F5F5F4F220F331FC2
:10195000441FAA1FA9F335D00E2E3AF0E0E832D08A
:1019600091505040E695001CCAF72BD0FE2F29D08D
:10197000660F771F881FBB1F261737074807AB075F
:10198000B0E809F0BB0B802DBF01FF2793585F4FD4
:101990003AF09E3F510578F00C94830D0C94CE0DD7
:1019A0005F3FE4F3983ED4F3869577956795B795B6
:1019B000F7959F5FC9F7880F911D9695879597F9C1
:1019C0000895E1E0660F771F881FBB1F621773073A
:1019D0008407BA0720F0621B730B840BBA0BEE1F4F
:1019E00088F7E09508950E94B30D88F09F5798F00E
:1019F000B92F9927B751B0F0E1F0660F771F881F14
:101A0000991F1AF0BA95C9F714C0B13091F00E942D
:101A1000CD0DB1E008950C94CD0D672F782F882758
:101A2000B85F39F0B93FCCF3869577956795B39554
:101A3000D9F73EF490958095709561957F4F8F4FC3
:101A40009F4F0895E89409C097FB3EF490958095C8
:101A5000709561957F4F8F4F9F4F9923A9F0F92F74
:101A600096E9BB279395F695879577956795B795F2
:101A7000F111F8CFFAF4BB0F11F460FF1BC06F5FD8
:101A80007F4F8F4F9F4F16C0882311F096E911C0EA
:101A9000772321F09EE8872F762F05C0662371F00B
:101AA00096E8862F70E060E02AF09A95660F771F1F
:101AB000881FDAF7880F9695879597F90895990FFB
:101AC0000008550FAA0BE0E8FEEF16161706E80708
:101AD000F907C0F012161306E407F50798F0621B29
:101AE000730B840B950B39F40A2661F0232B242BFE
:101AF000252B21F408950A2609F4A140A6958FEF1D
:101B0000811D811D089597F99F6780E870E060E06E
:101B100008959FEF80EC089500240A941616170686
:101B200018060906089500240A94121613061406CE
:101B300005060895092E0394000C11F4882352F031
:101B4000BB0F40F4BF2B11F460FF04C06F5F7F4FE9
:101B50008F4F9F4F089557FD9058440F551F59F0D0
:101B60005F3F71F04795880F97FB991F61F09F3F8A
:101B700079F087950895121613061406551FF2CFB3
:101B80004695F1DF08C0161617061806991FF1CF03
:101B900086957105610508940895E894BB2766272A
:101BA0007727CB0197F908950E945F0D08F48FEF16
:101BB00008950E94EC0D0C949A0D0E948C0D38F043
:101BC0000E94930D20F0952311F00C94830D0C943A
:101BD000890D11240C94CE0D0E94AB0D70F3959FCE
:101BE000C1F3950F50E0551F629FF001729FBB2714
:101BF000F00DB11D639FAA27F00DB11DAA1F649FB0
:101C00006627B00DA11D661F829F2227B00DA11D62
:101C1000621F739FB00DA11D621F839FA00D611DE8
:101C2000221F749F3327A00D611D231F849F600D09
:101C3000211D822F762F6A2F11249F5750409AF032
:101C4000F1F088234AF0EE0FFF1FBB1F661F771FBE
:101C5000881F91505040A9F79E3F510580F00C9489
:101C6000830D0C94CE0D5F3FE4F3983ED4F386953C
:101C700077956795B795F795E7959F5FC1F7FE2B29
:101C8000880F911D9695879597F90895EE0FFF1F80
:101C90000590F491E02D09940F931F93CF93DF9358
:101CA0008230910510F482E090E0E091AB02F09177
:101CB000AC0230E020E0B0E0A0E0309799F42115CC
:101CC000310509F44AC0281B390B24303105D8F5F9
:101CD0008A819B816115710589F1FB019383828360
:101CE000FE0111C0408151810281138148175907BB
:101CF000E0F04817590799F4109761F012960C9389
:101D0000129713961C933296CF01DF91CF911F91BA
:101D10000F9108950093AB021093AC02F4CF2115FC
:101D2000310551F04217530738F0A901DB019A0140
:101D3000BD01DF01F801C1CFEF01F9CF9093AC02F3
:101D40008093AB02CDCFFE01E20FF31F81939193FD
:101D50002250310939832883D7CF2091A9023091AD
:101D6000AA02232B41F420910C0130910D013093F4
:101D7000AA022093A90220910A0130910B0121159A
:101D8000310541F42DB73EB740910E0150910F013E
:101D9000241B350BE091A902F091AA02E217F30788
:101DA000A0F42E1B3F0B2817390778F0AC014E5FCB
:101DB0005F4F2417350748F04E0F5F1F5093AA025C
:101DC0004093A902819391939FCFF0E0E0E09CCFF4
:101DD000CF93DF930097E9F0FC01329713821282D0
:101DE000A091AB02B091AC02ED0130E020E0109781
:101DF000A1F420813181820F931F2091A90230919B
:101E0000AA022817390709F061C0F093AA02E093EB
:101E1000A902DF91CF910895EA01CE17DF07E8F517
:101E20004A815B819E0141155105B1F7E901FB83B0
:101E3000EA8349915991C40FD51FEC17FD0761F44E
:101E4000808191810296840F951FE901998388838F
:101E5000828193819B838A83F0E0E0E012968D91EA
:101E60009C9113970097B9F52D913C911197CD0155
:101E70000296820F931F2091A9023091AA0228177F
:101E8000390739F6309751F51092AC021092AB0237
:101E9000B093AA02A093A902BCCFD383C28340818E
:101EA0005181840F951FC817D90761F44E5F5F4FAA
:101EB00088819981480F591F518340838A819B8172
:101EC000938382832115310509F0B0CFF093AC02E2
:101ED000E093AB029ECFFD01DC01C0CF13821282E2
:061EE000D7CFF894FFCFFC
:101EE6001405140514056E05DC050000AD0280001E
:101EF600000000004902A901D60196020702E50189
:101F0600F90100000000BA048D04E90463048604A4
:041F160073046404E8
:00000001FF
