:020000040000FA
:100000000C9462000C948A000C948A000C948A0070
:100010000C948A000C948A000C948A000C948A0038
:100020000C948A000C948A000C948A000C94B504F9
:100030000C948A000C948A000C948A000C948A0018
:100040000C9413040C948A000C9483040C945D04A7
:100050000C948A000C948A000C948A000C948A00F8
:100060000C948A000C948A000000000024002700F1
:100070002A0000000000250028002B0000000000DE
:1000800023002600290004040404040404040202DA
:100090000202020203030303030301020408102007
:1000A0004080010204081020010204081020000012
:1000B0000008000201000003040700000000000027
:1000C00000008C0511241FBECFEFD8E0DEBFCDBFEE
:1000D00011E0A0E0B1E0E8E7F0E102C005900D9288
:1000E000A032B107D9F721E0A0E2B1E001C01D9232
:1000F000AB3FB207E1F710E0C2E6D0E004C02197C1
:10010000FE010E943408C136D107C9F70E94CC0510
:100110000C943A080C940000FC01538D448D252F5B
:1001200030E0842F90E0821B930B541710F0CF9691
:10013000089501970895FC01918D828D981761F0C3
:10014000A28DAE0FBF2FB11D5D968C91928D9F5FDA
:100150009F73928F90E008958FEF9FEF0895FC01B9
:10016000918D828D981731F0828DE80FF11D858D6C
:1001700090E008958FEF9FEF0895FC01918D228DFF
:10018000892F90E0805C9F4F821B91098F73992784
:100190000895FC01A48DA80FB92FB11DA35ABF4F1C
:1001A0002C91848D90E001968F739927848FA68976
:1001B000B7892C93A089B1898C91837080648C93CA
:1001C000938D848D981306C00288F389E02D808179
:1001D0008F7D80830895EF92FF920F931F93CF93AB
:1001E000DF93EC0181E0888F9B8D8C8D98131AC072
:1001F000E889F989808185FF15C09FB7F894EE8959
:10020000FF896083E889F9898081837080648083B5
:100210009FBF81E090E0DF91CF911F910F91FF9000
:10022000EF900895F62E0B8D10E00F5F1F4F0F73A8
:100230001127E02E8C8D8E110CC00FB607FCFACF63
:10024000E889F989808185FFF5CFCE010E94C90038
:10025000F1CFEB8DEC0FFD2FF11DE35AFF4FF08234
:100260009FB7F8940B8FEA89FB8980818062CFCF9A
:10027000CF93DF93EC01888D8823B9F0AA89BB89DD
:10028000E889F9898C9185FD03C0808186FD0DC0C8
:100290000FB607FCF7CF8C9185FFF2CF808185FFE9
:1002A000EDCFCE010E94C900E9CFDF91CF91089533
:1002B0008FE491E00E94BD0021E0892B09F420E049
:1002C000822F089580E090E0892B29F00E94580148
:1002D00081110C9400000895833081F028F481305E
:1002E00099F08230A9F008958730A9F08830C9F0DC
:1002F0008430B1F4809180008F7D03C080918000B4
:100300008F7780938000089584B58F7784BD08959A
:1003100084B58F7DFBCF8091B0008F778093B00044
:1003200008958091B0008F7DF9CFCF93DF93282F70
:1003300030E0F901E255FF4F8491F901E656FF4F95
:10034000D491F901EA57FF4FC491CC23A1F0811158
:100350000E946C01EC2FF0E0EE0FFF1FE458FF4FFE
:10036000A591B491EC91ED2381E090E009F480E057
:10037000DF91CF91089580E090E0FACF1F93CF9363
:10038000DF93282F30E0F901E255FF4F8491F90106
:10039000E656FF4FD491F901EA57FF4FC491CC23A1
:1003A000A9F0162F81110E946C01EC2FF0E0EE0FE6
:1003B000FF1FEE58FF4FA591B4918FB7F894EC91C1
:1003C000111108C0D095DE23DC938FBFDF91CF9150
:1003D0001F910895DE2BF8CFCF93DF9390E0FC01BF
:1003E000E656FF4F24918A579F4FFC018491882342
:1003F000D1F090E0880F991FFC01E859FF4FA591BB
:10040000B491FC01EE58FF4FC591D49161110EC01B
:100410009FB7F8948C91E22FE0958E238C932881DE
:10042000E223E8839FBFDF91CF9108958FB7F894BF
:10043000EC91E22BEC938FBFF6CF8E3008F08E500C
:100440008770806480937C0080917A0080648093C0
:100450007A0080917A0086FDFCCF8091780090919F
:10046000790008953FB7F89480914B0190914C0129
:10047000A0914D01B0914E0126B5A89B05C02F3F1C
:1004800019F00196A11DB11D3FBFBA2FA92F982FBA
:100490008827BC01CD01620F711D811D911D42E0B5
:1004A000660F771F881F991F4A95D1F708958F927D
:1004B0009F92AF92BF92CF92DF92EF92FF926B0129
:1004C0007C010E9432024B015C01C114D104E104A1
:1004D000F104B9F00E943202681979098A099B096E
:1004E000683E73408105910580F321E0C21AD1086E
:1004F000E108F10888EE880E83E0981EA11CB11C6B
:10050000E4CFFF90EF90DF90CF90BF90AF909F909F
:100510008F900895AF92BF92CF92DF92EF92FF92A9
:100520000F931F93CF93DF936C017B018B01040F1B
:10053000151FEB015E01AE18BF08C017D10759F0B7
:100540006991D601ED91FC910190F081E02DC601F9
:100550000995892B79F7C501DF91CF911F910F91F3
:10056000FF90EF90DF90CF90BF90AF900895CF9223
:10057000DF92EF92FF92CF93DF93EC01603282E043
:100580007807CCF5653B710514F064EB70E0898168
:1005900028E830E0281B310987FD3395220F331FEF
:1005A000220F331F6901330FEE08FF088A8128E507
:1005B00032E0281B310987FD3395220F331F220FAC
:1005C000331F032E000C440B550B2C193D094E090B
:1005D0005F09DB0177FF02C0B0E0A0E00E94EF07F7
:1005E00024EB30E040E050E00E94C507C20ED31E6D
:1005F000E41EF51EB601E881EC3070F5298188E82B
:1006000090E0821B910927FD9395880F991F880F11
:10061000991F681779077CF02A8188E592E0821B90
:10062000910927FD9395880F991F880F991F6817C7
:1006300079070CF4CB010297880F991F4FB7F894F4
:100640002E2F30E0F901EE0FFF1FE20FF31FEE5DDA
:10065000FE4F928381834FBFDF91CF91FF90EF9048
:10066000DF90CF9008951F93CF93DF93EC01162F67
:1006700088818C3008F04EC061E0812F0E94EC012F
:100680008881282F30E0F901EE0FFF1FE20FF31FE2
:10069000EE5DFE4F1F736081607C612B6083198269
:1006A0001A822CE0622F0E942808829FB001112438
:1006B00030E020E0AB01420F531FFA01EE0FFF1FA5
:1006C000E40FF51FEE5DFE4F908196FD16C02F5F83
:1006D0003F4F2C30310571F781110FC0109280000F
:1006E00082E0809381001092850010928400B19A7C
:1006F00080916F00826080936F00E8818E2F90E080
:10070000FC01EE0FFF1FE80FF91FEE5DFE4F808129
:10071000806480838881DF91CF911F9108958F92AB
:100720009F92AF92BF920F931F93CF93DF93CDB75A
:10073000DEB7A1970FB6F894DEBF0FBECDBF19A2EA
:10074000423008F44AE08E010F5D1F4F842E912C39
:10075000B12CA12CA50194010E94F707E62FB90145
:10076000CA01EA3044F5E05DD801EE938D01232BF8
:10077000242B252B79F790E080E0109769F0FD019C
:1007800001900020E9F73197AF014A1B5B0BBD01D7
:100790008FE491E00E948A02A1960FB6F894DEBF22
:1007A0000FBECDBFDF91CF911F910F91BF90AF9042
:1007B0009F908F900895E95CD7CFCF92DF92EF9210
:1007C000FF92CF93DF936C01990FEE08FF08F7FEBD
:1007D00023C06DE28FE491E00E94EB00EC016627FC
:1007E0007727CB016C197D098E099F094AE00E9489
:1007F0008F03C80FD91F42E050E06CE171E08FE435
:1008000091E00E948A028C0F9D1FDF91CF91FF9093
:10081000EF90DF90CF9008954AE0C701B6010E94A3
:100820008F03EC01E8CF1F920F920FB60F921124A5
:100830002F933F938F939F93AF93BF9380914701E3
:1008400090914801A0914901B0914A01309146012F
:1008500023E0230F2D3758F50196A11DB11D2093DC
:1008600046018093470190934801A0934901B093BA
:100870004A0180914B0190914C01A0914D01B091A2
:100880004E010196A11DB11D80934B0190934C0127
:10089000A0934D01B0934E01BF91AF919F918F9165
:1008A0003F912F910F900FBE0F901F90189526E843
:1008B000230F0296A11DB11DD2CF1F920F920FB62A
:1008C0000F9211242F933F934F935F936F937F93D6
:1008D0008F939F93AF93BF93EF93FF938FE491E038
:1008E0000E94C900FF91EF91BF91AF919F918F91AD
:1008F0007F916F915F914F913F912F910F900FBE1C
:100900000F901F9018951F920F920FB60F921124FF
:100910002F938F939F93EF93FF93E0915F01F0915B
:1009200060018081E0916501F091660182FD1BC04C
:100930009081809168018F5F8F7320916901821788
:1009400041F0E0916801F0E0E15BFE4F958F80930C
:100950006801FF91EF919F918F912F910F900FBEA2
:100960000F901F9018958081F4CF1F920F920FB6B1
:100970000F9211242F933F934F935F936F937F9325
:100980008F939F93AF93BF93CF93DF93EF93FF9397
:1009900080912001C0912101D0E087FF24C01092F6
:1009A000850010928400809120018F5F8093200148
:1009B00080912001082E000C990B8C179D0724F4C0
:1009C000809120018C30C4F1809184009091850049
:1009D000049680349C4908F47AC0809184009091F8
:1009E0008500049676C080912001082E000C990B9A
:1009F0008C179D07C4F6E09120018E2FEE0F990B06
:100A0000FC01EE0FFF1FE80FF91FEE5DFE4F808126
:100A100086FFC9CFE09120018E2FEE0F990BFC01CC
:100A2000EE0FFF1FE80FF91FEE5DFE4F808160E0C3
:100A30008F730E94BE01B7CF209184003091850052
:100A4000E09120018E2FEE0F990BFC01EE0FFF1F9E
:100A5000E80FF91FEE5DFE4F81819281820F931F97
:100A60009093890080938800E09120018E2FEE0FF3
:100A7000990BFC01EE0FFF1FE80FF91FEE5DFE4F13
:100A8000808186FF11C0E09120018E2FEE0F990B1F
:100A9000FC01EE0FFF1FE80FF91FEE5DFE4F808196
:100AA00061E08F730E94BE01FF91EF91DF91CF91C2
:100AB000BF91AF919F918F917F916F915F914F9176
:100AC0003F912F910F900FBE0F901F90189580E4CB
:100AD0009CE990938900809388008FEF8093200198
:100AE000E3CFFC01909121019C3098F481E0890FC3
:100AF000809321019083892F90E0FC01EE0FFF1F6E
:100B0000E80FF91FEE5DFE4F88EB9BE09283818337
:100B100008958FEF80830895EFE4F1E0138212824D
:100B200088EE93E0A0E0B0E084839583A683B7834A
:100B30008EE091E09183808385EC90E095878487B7
:100B400084EC90E09787868780EC90E0918B808B97
:100B500081EC90E0938B828B82EC90E0958B848B80
:100B600086EC90E0978B868B118E128E138E148EEE
:100B700088EF91E00E94710585EF91E00E94710578
:100B800082EF91E00E9471058FEE91E00E94710565
:100B90008CEE91E00C947105789484B5826084BDEC
:100BA00084B5816084BD85B5826085BD85B5816071
:100BB00085BD80916E00816080936E0010928100EF
:100BC00080918100826080938100809181008160AA
:100BD000809381008091800081608093800080916B
:100BE000B10084608093B1008091B00081608093F7
:100BF000B00080917A00846080937A0080917A00BE
:100C0000826080937A0080917A00816080937A007C
:100C100080917A00806880937A001092C1008AE502
:100C200090E09093010180930001909303018093E1
:100C30000201909305018093040190930701809332
:100C40000601909309018093080160E08EE00E9404
:100C5000EC0160E08FE00E94EC0161E083E00E9423
:100C6000EC0161E085E00E94EC0160E080E10E941F
:100C7000EC0160E081E10E94EC0161E086E00E940D
:100C8000EC0161E089E00E94EC0160E082E00E94FA
:100C9000EC0161E082E00E94BE0160E087E00E941A
:100CA000EC0161E087E00E94BE0163E070E088EF44
:100CB00091E00E94330365E070E085EF91E00E94CF
:100CC00033036AE570E088EF91E00E94B7026AE5BD
:100CD00070E085EF91E00E94B70266E070E082EF7D
:100CE00091E00E94330369E070E08FEE91E00E9492
:100CF00033036AE570E082EF91E00E94B7026AE593
:100D000070E08FEE91E00E94B7026AE070E08CEE36
:100D100091E00E9433036AE570E08CEE91E00E945E
:100D2000B70200E010E08EE00E941D028132934085
:100D3000BCF0C0910801D0910901C43BD10584F4F5
:100D4000BE0188EF91E00E94B7022196D09309017D
:100D5000C093080169E170E080E090E00E945702D2
:100D60008EE00E941D0280399140BCF4C0910801C0
:100D7000D09109011C161D0684F4BE0188EF91E094
:100D80000E94B7022197D0930901C093080169E13D
:100D900070E080E090E00E9457028FE00E941D0208
:100DA00081329340BCF0C0910601D0910701C43B51
:100DB000D10584F4BE0185EF91E00E94B70221962F
:100DC000D0930701C093060169E170E080E090E0F4
:100DD0000E9457028FE00E941D0280399140BCF4AE
:100DE000C0910601D09107011C161D0684F4BE01B6
:100DF00085EF91E00E94B7022197D0930701C0933D
:100E0000060169E170E080E090E00E94570280E115
:100E10000E941D0285389340BCF0C0910401D0911E
:100E20000501C43BD10584F4BE0182EF91E00E942C
:100E3000B7022196D0930501C093040169E170E0E7
:100E400080E090E00E94570280E10E941D028C32F7
:100E50009140D4F4C0910401D09105011C161D06E7
:100E60009CF4BE0182EF91E00E94B702CE0101978F
:100E700090930501809304010E94DD0369E170E015
:100E800080E090E00E94570281E10E941D028538B7
:100E90009340BCF0C0910201D0910301C43BD10545
:100EA00084F4BE018FEE91E00E94B7022196D093A8
:100EB0000301C093020169E170E080E090E00E94CC
:100EC000570281E10E941D028C329140D4F4C091FE
:100ED0000201D09103011C161D069CF4BE018FEE89
:100EE00091E00E94B702CE01019790930301809395
:100EF00002010E94DD0369E170E080E090E00E9461
:100F0000570282E00E949501892BB9F4C09100013B
:100F1000D0910101C43BD10584F4BE018CEE91E077
:100F20000E94B7022196D0930101C093000169E1AC
:100F300070E080E090E00E94570287E00E949501F7
:100F4000892BB9F4C0910001D09101011C161D0636
:100F500084F4BE018CEE91E00E94B7022197D093F9
:100F60000101C093000169E170E080E090E00E941F
:100F700057020115110509F4D6CE0E9458018823A5
:100F800009F4D1CE0E940000CECE052E97FB1EF4B0
:100F900000940E94DC0757FD07D00E94F70707FC6A
:100FA00003D04EF40C94DC07509540953095219574
:100FB0003F4F4F4F5F4F0895909580957095619585
:100FC0007F4F8F4F9F4F08950E941908A59F900D46
:100FD000B49F900DA49F800D911D11240895B7FF1B
:100FE0000C94E4070E94E407821B930B0895A1E28E
:100FF0001A2EAA1BBB1BFD010DC0AA1FBB1FEE1F93
:10100000FF1FA217B307E407F50720F0A21BB30BDD
:10101000E40BF50B661F771F881F991F1A9469F759
:1010200060957095809590959B01AC01BD01CF01B5
:101030000895A29FB001B39FC001A39F700D811DB1
:101040001124911DB29F700D811D1124911D0895D1
:10105000991B79E004C0991F961708F0961B881F0A
:101060007A95C9F780950895EE0FFF1F0590F491CA
:10107000E02D0994F894FFCF5A005A005A005A0004
:101080005A0000000000EB008A028C003801BD000D
:081090009B00AF000D0A0000F7
:107800000C94343C0C94513C0C94513C0C94513CE1
:107810000C94513C0C94513C0C94513C0C94513CB4
:107820000C94513C0C94513C0C94513C0C94513CA4
:107830000C94513C0C94513C0C94513C0C94513C94
:107840000C94513C0C94513C0C94513C0C94513C84
:107850000C94513C0C94513C0C94513C0C94513C74
:107860000C94513C0C94513C11241FBECFEFD8E036
:10787000DEBFCDBF11E0A0E0B1E0ECE9FFE702C060
:1078800005900D92A230B107D9F712E0A2E0B1E065
:1078900001C01D92AD30B107E1F70E942D3D0C945F
:1078A000CC3F0C94003C982F959595959595959582
:1078B000905D8F708A307CF0282F295A8091C0000B
:1078C00085FFFCCF9093C6008091C00085FFFCCF60
:1078D0002093C6000895282F205DF0CF982F809127
:1078E000C00085FFFCCF9093C6000895EF92FF92F1
:1078F0000F931F93EE24FF2487018091C00087FD22
:1079000017C00894E11CF11C011D111D81E4E8164B
:1079100082E4F8068FE0080780E0180770F3E09132
:107920000401F091050109958091C00087FFE9CF1E
:107930008091C6001F910F91FF90EF9008950E94D3
:10794000763C982F8091C00085FFFCCF9093C600B5
:1079500091362CF490330CF09053892F089597555D
:10796000892F08951F930E949F3C182F0E949F3CCF
:107970001295107F810F1F9108951F93182F882350
:1079800021F00E94763C1150E1F71F9108951F935A
:10799000182F0E94763C803249F0809103018F5F5E
:1079A000809303018530C1F01F9108958091C0003C
:1079B00085FFFCCF84E18093C6008091C00085FFE5
:1079C000FCCF1093C6008091C00085FFFCCF80E102
:1079D0008093C6001F910895E0910401F091050184
:1079E00009951F9108950E94763C803241F0809164
:1079F00003018F5F80930301853081F008958091AA
:107A0000C00085FFFCCF84E18093C6008091C00058
:107A100085FFFCCF80E18093C6000895E0910401CA
:107A2000F09105010995089540E951E08823A1F0FE
:107A30002D9A28EE33E0FA013197F1F721503040CA
:107A4000D1F72D9828EE33E0FA013197F1F7215064
:107A50003040D1F7815061F708953F924F925F9285
:107A60006F927F928F929F92AF92BF92CF92DF924E
:107A7000EF92FF920F931F93CF93DF93000080E16B
:107A80008093C4001092C50088E18093C10086E015
:107A90008093C2005098589A259A81E00E94143D24
:107AA00024E1F22E9EE1E92E85E9D82E0FE0C02ECA
:107AB00010E1B12EAA24A394B1E49B2EA6E58A2E50
:107AC000F2E57F2EE0E26E2E79E4572E63E5462E36
:107AD00050E5352E0E94763C8033B1F18133B9F107
:107AE000803409F46FC0813409F476C0823409F41B
:107AF00085C0853409F488C0803531F1823521F1A3
:107B0000813511F1853509F485C0863509F48DC0BC
:107B1000843609F496C0843709F403C1853709F423
:107B200072C1863709F466C0809103018F5F80932C
:107B30000301853079F6E0910401F0910501099582
:107B40000E94763C803351F60E94F33CC3CF0E94E2
:107B5000763C803249F78091C00085FFFCCFF092DF
:107B6000C6008091C00085FFFCCF9092C600809136
:107B7000C00085FFFCCF8092C6008091C00085FFC9
:107B8000FCCF7092C6008091C00085FFFCCF609250
:107B9000C6008091C00085FFFCCF5092C600809146
:107BA000C00085FFFCCF4092C6008091C00085FFD9
:107BB000FCCF3092C6008091C00085FFFCCFB09210
:107BC000C60088CF0E94763C863808F4BDCF0E945C
:107BD000763C0E94F33C7ECF0E94763C803809F4CC
:107BE0009CC0813809F40BC1823809F43CC1883942
:107BF00009F48FC080E00E94C73C6CCF84E10E94F2
:107C0000BD3C0E94F33C66CF85E00E94BD3C0E94D3
:107C1000F33C60CF0E94763C809306010E94763C44
:107C2000809307010E94F33C55CF0E94763C80333D
:107C300009F41DC183E00E94BD3C80E00E94C73C66
:107C400049CF0E94763C809309020E94763C809343
:107C5000080280910C028E7F80930C020E94763C79
:107C6000853409F415C18091080290910902892B8D
:107C700089F000E010E00E94763CF801E85FFE4FDA
:107C800080830F5F1F4F80910802909109020817AF
:107C9000190788F30E94763C803209F045CF809125
:107CA0000C0280FF01C16091060170910701660F0F
:107CB000771F7093070160930601A0910802B091AD
:107CC00009021097C9F0E8E0F1E09B01AD014E0F09
:107CD0005F1FF999FECF32BD21BD819180BDFA9A17
:107CE000F99A2F5F3F4FE417F50799F76A0F7B1F4B
:107CF00070930701609306018091C00085FFFCCF5F
:107D0000F092C6008091C00085FFFCCFB092C60003
:107D1000E1CE83E00E94C73CDDCE82E00E94C73CFA
:107D2000D9CE0E94763C809309020E94763C8093D3
:107D300008028091060190910701880F991F909386
:107D40000701809306010E94763C853409F4A6C0A1
:107D500080910C028E7F80930C020E94763C8032D0
:107D600009F0B8CE8091C00085FFFCCFF092C6002C
:107D7000609108027091090261157105B9F140E046
:107D800050E080910C02A82FA170B82FB27011C0E2
:107D9000BB2309F45CC0E0910601F0910701319624
:107DA000F0930701E09306014F5F5F4F46175707B7
:107DB000E8F4AA2369F3F999FECF209106013091E6
:107DC000070132BD21BDF89A90B58091C00085FFB2
:107DD000FCCF9093C6002F5F3F4F30930701209355
:107DE00006014F5F5F4F4617570718F38091C00099
:107DF00085FDE5CE8091C00085FFF8CFE0CE81E023
:107E00000E94C73C67CE0E94763C803209F08CCE3F
:107E10008091C00085FFFCCFF092C6008091C00029
:107E200085FFFCCFE092C6008091C00085FFFCCFAB
:107E3000D092C6008091C00085FFFCCFC092C600E2
:107E40008091C00085FFFCCFB092C60043CEE09188
:107E50000601F091070194918091C00085FFFCCF4D
:107E60009093C6009CCF80E10E94C73C33CE0E9415
:107E7000763C0E94763C182F0E94763C112309F430
:107E800083C0113009F484C08FE00E94C73C22CE29
:107E900080910C02816080930C02E5CE80910C02EF
:107EA000816080930C0259CF809107018823880F4D
:107EB000880B8A2180930B02809106019091070123
:107EC000880F991F90930701809306018091080203
:107ED00080FF09C080910802909109020196909359
:107EE000090280930802F894F999FECF1127E091D6
:107EF0000601F0910701C8E0D1E08091080290915D
:107F00000902103091F40091570001700130D9F34B
:107F100003E000935700E89500915700017001308D
:107F2000D9F301E100935700E89509901990009169
:107F3000570001700130D9F301E000935700E89534
:107F40001395103498F011270091570001700130FB
:107F5000D9F305E000935700E895009157000170B0
:107F60000130D9F301E100935700E895329602976A
:107F700009F0C7CF103011F00296E5CF112480919F
:107F8000C00085FFB9CEBCCE8EE10E94C73CA2CD19
:0E7F900085E90E94C73C9ECDF894FFCF80008B
:00000001FF
